{
    "_format": "hh-sol-artifact-1",
    "contractName": "PunchPortal",
    "sourceName": "contracts/PunchPortal.sol",
    "abi": [
        {
            "inputs": [],
            "stateMutability": "nonpayable",
            "type": "constructor"
        },
        {
            "anonymous": false,
            "inputs": [
                {
                    "indexed": true,
                    "internalType": "address",
                    "name": "from",
                    "type": "address"
                },
                {
                    "indexed": false,
                    "internalType": "uint256",
                    "name": "timestamp",
                    "type": "uint256"
                },
                {
                    "indexed": false,
                    "internalType": "string",
                    "name": "message",
                    "type": "string"
                }
            ],
            "name": "NewPunch",
            "type": "event"
        },
        {
            "inputs": [],
            "name": "getAllPunches",
            "outputs": [
                {
                    "components": [
                        {
                            "internalType": "address",
                            "name": "puncher",
                            "type": "address"
                        },
                        {
                            "internalType": "string",
                            "name": "message",
                            "type": "string"
                        },
                        {
                            "internalType": "uint256",
                            "name": "timestamp",
                            "type": "uint256"
                        }
                    ],
                    "internalType": "struct PunchPortal.Punch[]",
                    "name": "",
                    "type": "tuple[]"
                }
            ],
            "stateMutability": "view",
            "type": "function"
        },
        {
            "inputs": [
                {
                    "internalType": "address",
                    "name": "owner",
                    "type": "address"
                }
            ],
            "name": "getPunchesNumberByAddress",
            "outputs": [
                {
                    "internalType": "uint256",
                    "name": "",
                    "type": "uint256"
                }
            ],
            "stateMutability": "view",
            "type": "function"
        },
        {
            "inputs": [],
            "name": "getTotalPunches",
            "outputs": [
                {
                    "internalType": "uint256",
                    "name": "",
                    "type": "uint256"
                }
            ],
            "stateMutability": "view",
            "type": "function"
        },
        {
            "inputs": [
                {
                    "internalType": "string",
                    "name": "_message",
                    "type": "string"
                }
            ],
            "name": "punch",
            "outputs": [],
            "stateMutability": "nonpayable",
            "type": "function"
        }
    ],
    "bytecode": "0x60806040523480156200001157600080fd5b506200005d6040518060400160405280601e81526020017f536d61727420636f6e747261637420697320636f6e73747275637465642100008152506200006360201b620004b11760201c565b620001f7565b62000103816040516024016200007a919062000170565b6040516020818303038152906040527f41304fac000000000000000000000000000000000000000000000000000000007bffffffffffffffffffffffffffffffffffffffffffffffffffffffff19166020820180517bffffffffffffffffffffffffffffffffffffffffffffffffffffffff83818316178352505050506200010660201b60201c565b50565b60008151905060006a636f6e736f6c652e6c6f679050602083016000808483855afa5050505050565b60006200013c8262000194565b6200014881856200019f565b93506200015a818560208601620001b0565b6200016581620001e6565b840191505092915050565b600060208201905081810360008301526200018c81846200012f565b905092915050565b600081519050919050565b600082825260208201905092915050565b60005b83811015620001d0578082015181840152602081019050620001b3565b83811115620001e0576000848401525b50505050565b6000601f19601f8301169050919050565b610dce80620002076000396000f3fe608060405234801561001057600080fd5b506004361061004c5760003560e01c80631d7b9b94146100515780634b2178081461006d5780639bcfc9321461008b578063fc497b18146100a9575b600080fd5b61006b600480360381019061006691906107f4565b6100d9565b005b610075610250565b6040516100829190610a60565b60405180910390f35b61009361027e565b6040516100a091906109bc565b60405180910390f35b6100c360048036038101906100be91906107cb565b6103cf565b6040516100d09190610a60565b60405180910390f35b60016000808282546100eb9190610b72565b925050819055506101316040518060400160405280600f81526020017f2573206861732070756e636865642100000000000000000000000000000000008152503361054a565b600160405180606001604052803373ffffffffffffffffffffffffffffffffffffffff16815260200183815260200142815250908060018154018082558091505060019003906000526020600020906003020160009091909190915060008201518160000160006101000a81548173ffffffffffffffffffffffffffffffffffffffff021916908373ffffffffffffffffffffffffffffffffffffffff16021790555060208201518160010190805190602001906101f09291906106ab565b506040820151816002015550503373ffffffffffffffffffffffffffffffffffffffff167fa35f355e23ec0767309d4cb5da7655124db14a880f63b11d8daf51b4f3c0f8184283604051610245929190610a7b565b60405180910390a250565b6000610276604051806060016040528060228152602001610d77602291396000546105e6565b600054905090565b60606001805480602002602001604051908101604052809291908181526020016000905b828210156103c657838290600052602060002090600302016040518060600160405290816000820160009054906101000a900473ffffffffffffffffffffffffffffffffffffffff1673ffffffffffffffffffffffffffffffffffffffff1673ffffffffffffffffffffffffffffffffffffffff16815260200160018201805461032b90610c46565b80601f016020809104026020016040519081016040528092919081815260200182805461035790610c46565b80156103a45780601f10610379576101008083540402835291602001916103a4565b820191906000526020600020905b81548152906001019060200180831161038757829003601f168201915b50505050508152602001600282015481525050815260200190600101906102a2565b50505050905090565b6000806000905060005b6001805490508110156104a7578373ffffffffffffffffffffffffffffffffffffffff1660018281548110610437577f4e487b7100000000000000000000000000000000000000000000000000000000600052603260045260246000fd5b906000526020600020906003020160000160009054906101000a900473ffffffffffffffffffffffffffffffffffffffff1673ffffffffffffffffffffffffffffffffffffffff16141561049457818061049090610c78565b9250505b808061049f90610c78565b9150506103d9565b5080915050919050565b610547816040516024016104c591906109de565b6040516020818303038152906040527f41304fac000000000000000000000000000000000000000000000000000000007bffffffffffffffffffffffffffffffffffffffffffffffffffffffff19166020820180517bffffffffffffffffffffffffffffffffffffffffffffffffffffffff8381831617835250505050610682565b50565b6105e28282604051602401610560929190610a00565b6040516020818303038152906040527f319af333000000000000000000000000000000000000000000000000000000007bffffffffffffffffffffffffffffffffffffffffffffffffffffffff19166020820180517bffffffffffffffffffffffffffffffffffffffffffffffffffffffff8381831617835250505050610682565b5050565b61067e82826040516024016105fc929190610a30565b6040516020818303038152906040527f9710a9d0000000000000000000000000000000000000000000000000000000007bffffffffffffffffffffffffffffffffffffffffffffffffffffffff19166020820180517bffffffffffffffffffffffffffffffffffffffffffffffffffffffff8381831617835250505050610682565b5050565b60008151905060006a636f6e736f6c652e6c6f679050602083016000808483855afa5050505050565b8280546106b790610c46565b90600052602060002090601f0160209004810192826106d95760008555610720565b82601f106106f257805160ff1916838001178555610720565b82800160010185558215610720579182015b8281111561071f578251825591602001919060010190610704565b5b50905061072d9190610731565b5090565b5b8082111561074a576000816000905550600101610732565b5090565b600061076161075c84610adc565b610aab565b90508281526020810184848401111561077957600080fd5b610784848285610c04565b509392505050565b60008135905061079b81610d5f565b92915050565b600082601f8301126107b257600080fd5b81356107c284826020860161074e565b91505092915050565b6000602082840312156107dd57600080fd5b60006107eb8482850161078c565b91505092915050565b60006020828403121561080657600080fd5b600082013567ffffffffffffffff81111561082057600080fd5b61082c848285016107a1565b91505092915050565b6000610841838361094e565b905092915050565b61085281610bc8565b82525050565b61086181610bc8565b82525050565b600061087282610b1c565b61087c8185610b3f565b93508360208202850161088e85610b0c565b8060005b858110156108ca57848403895281516108ab8582610835565b94506108b683610b32565b925060208a01995050600181019050610892565b50829750879550505050505092915050565b60006108e782610b27565b6108f18185610b50565b9350610901818560208601610c13565b61090a81610d4e565b840191505092915050565b600061092082610b27565b61092a8185610b61565b935061093a818560208601610c13565b61094381610d4e565b840191505092915050565b60006060830160008301516109666000860182610849565b506020830151848203602086015261097e82826108dc565b9150506040830151610993604086018261099e565b508091505092915050565b6109a781610bfa565b82525050565b6109b681610bfa565b82525050565b600060208201905081810360008301526109d68184610867565b905092915050565b600060208201905081810360008301526109f88184610915565b905092915050565b60006040820190508181036000830152610a1a8185610915565b9050610a296020830184610858565b9392505050565b60006040820190508181036000830152610a4a8185610915565b9050610a5960208301846109ad565b9392505050565b6000602082019050610a7560008301846109ad565b92915050565b6000604082019050610a9060008301856109ad565b8181036020830152610aa28184610915565b90509392505050565b6000604051905081810181811067ffffffffffffffff82111715610ad257610ad1610d1f565b5b8060405250919050565b600067ffffffffffffffff821115610af757610af6610d1f565b5b601f19601f8301169050602081019050919050565b6000819050602082019050919050565b600081519050919050565b600081519050919050565b6000602082019050919050565b600082825260208201905092915050565b600082825260208201905092915050565b600082825260208201905092915050565b6000610b7d82610bfa565b9150610b8883610bfa565b9250827fffffffffffffffffffffffffffffffffffffffffffffffffffffffffffffffff03821115610bbd57610bbc610cc1565b5b828201905092915050565b6000610bd382610bda565b9050919050565b600073ffffffffffffffffffffffffffffffffffffffff82169050919050565b6000819050919050565b82818337600083830152505050565b60005b83811015610c31578082015181840152602081019050610c16565b83811115610c40576000848401525b50505050565b60006002820490506001821680610c5e57607f821691505b60208210811415610c7257610c71610cf0565b5b50919050565b6000610c8382610bfa565b91507fffffffffffffffffffffffffffffffffffffffffffffffffffffffffffffffff821415610cb657610cb5610cc1565b5b600182019050919050565b7f4e487b7100000000000000000000000000000000000000000000000000000000600052601160045260246000fd5b7f4e487b7100000000000000000000000000000000000000000000000000000000600052602260045260246000fd5b7f4e487b7100000000000000000000000000000000000000000000000000000000600052604160045260246000fd5b6000601f19601f8301169050919050565b610d6881610bc8565b8114610d7357600080fd5b5056fe256420697320746865206e756d626572206f6620746f74616c2070756e6368657321a2646970667358221220d5ce82bad0286b010152e77a3a3873b9ac0af01c31f057527bcee9048aa05b1964736f6c63430008000033",
    "linkReferences": {},
    "deployedLinkReferences": {}
}