{
    "_format": "hh-sol-artifact-1",
    "contractName": "PunchPortal",
    "sourceName": "contracts/PunchPortal.sol",
    "abi": [
        {
            "inputs": [],
            "stateMutability": "nonpayable",
            "type": "constructor"
        },
        {
            "inputs": [
                {
                    "internalType": "address",
                    "name": "owner",
                    "type": "address"
                }
            ],
            "name": "getPunchesByAddress",
            "outputs": [
                {
                    "internalType": "uint256",
                    "name": "",
                    "type": "uint256"
                }
            ],
            "stateMutability": "view",
            "type": "function"
        },
        {
            "inputs": [],
            "name": "getTotalPunches",
            "outputs": [
                {
                    "internalType": "uint256",
                    "name": "",
                    "type": "uint256"
                }
            ],
            "stateMutability": "view",
            "type": "function"
        },
        {
            "inputs": [],
            "name": "punch",
            "outputs": [],
            "stateMutability": "nonpayable",
            "type": "function"
        }
    ],
    "bytecode": "0x608060405234801561001057600080fd5b506100596040518060400160405280601e81526020017f536d61727420636f6e747261637420697320636f6e737472756374656421000081525061005e60201b6101fd1760201c565b6101e1565b6100fa81604051602401610072919061015f565b6040516020818303038152906040527f41304fac000000000000000000000000000000000000000000000000000000007bffffffffffffffffffffffffffffffffffffffffffffffffffffffff19166020820180517bffffffffffffffffffffffffffffffffffffffffffffffffffffffff83818316178352505050506100fd60201b60201c565b50565b60008151905060006a636f6e736f6c652e6c6f679050602083016000808483855afa5050505050565b600061013182610181565b61013b818561018c565b935061014b81856020860161019d565b610154816101d0565b840191505092915050565b600060208201905081810360008301526101798184610126565b905092915050565b600081519050919050565b600082825260208201905092915050565b60005b838110156101bb5780820151818401526020810190506101a0565b838111156101ca576000848401525b50505050565b6000601f19601f8301169050919050565b6106b9806101f06000396000f3fe608060405234801561001057600080fd5b50600436106100415760003560e01c80634b21780814610046578063682bb81314610064578063ca64047a1461006e575b600080fd5b61004e61009e565b60405161005b919061050e565b60405180910390f35b61006c6100cc565b005b6100886004803603810190610083919061040c565b6101b4565b604051610095919061050e565b60405180910390f35b60006100c460405180606001604052806022815260200161066260229139600054610296565b600054905090565b60016000808282546100de9190610545565b925050819055506101246040518060400160405280600f81526020017f2573206861732070756e6368656421000000000000000000000000000000000081525033610332565b60018060003373ffffffffffffffffffffffffffffffffffffffff1673ffffffffffffffffffffffffffffffffffffffff1681526020019081526020016000205461016f9190610545565b600160003373ffffffffffffffffffffffffffffffffffffffff1673ffffffffffffffffffffffffffffffffffffffff16815260200190815260200160002081905550565b6000600160008373ffffffffffffffffffffffffffffffffffffffff1673ffffffffffffffffffffffffffffffffffffffff168152602001908152602001600020549050919050565b61029381604051602401610211919061048c565b6040516020818303038152906040527f41304fac000000000000000000000000000000000000000000000000000000007bffffffffffffffffffffffffffffffffffffffffffffffffffffffff19166020820180517bffffffffffffffffffffffffffffffffffffffffffffffffffffffff83818316178352505050506103ce565b50565b61032e82826040516024016102ac9291906104de565b6040516020818303038152906040527f9710a9d0000000000000000000000000000000000000000000000000000000007bffffffffffffffffffffffffffffffffffffffffffffffffffffffff19166020820180517bffffffffffffffffffffffffffffffffffffffffffffffffffffffff83818316178352505050506103ce565b5050565b6103ca82826040516024016103489291906104ae565b6040516020818303038152906040527f319af333000000000000000000000000000000000000000000000000000000007bffffffffffffffffffffffffffffffffffffffffffffffffffffffff19166020820180517bffffffffffffffffffffffffffffffffffffffffffffffffffffffff83818316178352505050506103ce565b5050565b60008151905060006a636f6e736f6c652e6c6f679050602083016000808483855afa5050505050565b6000813590506104068161064a565b92915050565b60006020828403121561041e57600080fd5b600061042c848285016103f7565b91505092915050565b61043e8161059b565b82525050565b600061044f82610529565b6104598185610534565b93506104698185602086016105d7565b61047281610639565b840191505092915050565b610486816105cd565b82525050565b600060208201905081810360008301526104a68184610444565b905092915050565b600060408201905081810360008301526104c88185610444565b90506104d76020830184610435565b9392505050565b600060408201905081810360008301526104f88185610444565b9050610507602083018461047d565b9392505050565b6000602082019050610523600083018461047d565b92915050565b600081519050919050565b600082825260208201905092915050565b6000610550826105cd565b915061055b836105cd565b9250827fffffffffffffffffffffffffffffffffffffffffffffffffffffffffffffffff038211156105905761058f61060a565b5b828201905092915050565b60006105a6826105ad565b9050919050565b600073ffffffffffffffffffffffffffffffffffffffff82169050919050565b6000819050919050565b60005b838110156105f55780820151818401526020810190506105da565b83811115610604576000848401525b50505050565b7f4e487b7100000000000000000000000000000000000000000000000000000000600052601160045260246000fd5b6000601f19601f8301169050919050565b6106538161059b565b811461065e57600080fd5b5056fe256420697320746865206e756d626572206f6620746f74616c2070756e6368657321a26469706673582212205a22149cdb706b6eae6e3ca9bdf8b2124964576b673c9cb29e2a660c6d47234364736f6c63430008000033",
    "linkReferences": {},
    "deployedLinkReferences": {}
}