{
    "_format": "hh-sol-artifact-1",
    "contractName": "PunchPortal",
    "sourceName": "contracts/PunchPortal.sol",
    "abi": [
        {
            "inputs": [],
            "stateMutability": "payable",
            "type": "constructor"
        },
        {
            "anonymous": false,
            "inputs": [
                {
                    "indexed": true,
                    "internalType": "address",
                    "name": "from",
                    "type": "address"
                },
                {
                    "indexed": false,
                    "internalType": "uint256",
                    "name": "timestamp",
                    "type": "uint256"
                },
                {
                    "indexed": false,
                    "internalType": "string",
                    "name": "message",
                    "type": "string"
                }
            ],
            "name": "NewPunch",
            "type": "event"
        },
        {
            "inputs": [],
            "name": "getAllPunches",
            "outputs": [
                {
                    "components": [
                        {
                            "internalType": "address",
                            "name": "puncher",
                            "type": "address"
                        },
                        {
                            "internalType": "string",
                            "name": "message",
                            "type": "string"
                        },
                        {
                            "internalType": "uint256",
                            "name": "timestamp",
                            "type": "uint256"
                        }
                    ],
                    "internalType": "struct PunchPortal.Punch[]",
                    "name": "",
                    "type": "tuple[]"
                }
            ],
            "stateMutability": "view",
            "type": "function"
        },
        {
            "inputs": [
                {
                    "internalType": "address",
                    "name": "owner",
                    "type": "address"
                }
            ],
            "name": "getPunchesNumberByAddress",
            "outputs": [
                {
                    "internalType": "uint256",
                    "name": "",
                    "type": "uint256"
                }
            ],
            "stateMutability": "view",
            "type": "function"
        },
        {
            "inputs": [],
            "name": "getTotalPunches",
            "outputs": [
                {
                    "internalType": "uint256",
                    "name": "",
                    "type": "uint256"
                }
            ],
            "stateMutability": "view",
            "type": "function"
        },
        {
            "inputs": [
                {
                    "internalType": "string",
                    "name": "_message",
                    "type": "string"
                }
            ],
            "name": "punch",
            "outputs": [],
            "stateMutability": "nonpayable",
            "type": "function"
        }
    ],
    "bytecode": "0x60806040526200004f6040518060400160405280601e81526020017f536d61727420636f6e747261637420697320636f6e73747275637465642100008152506200005560201b620005ad1760201c565b620001e9565b620000f5816040516024016200006c919062000162565b6040516020818303038152906040527f41304fac000000000000000000000000000000000000000000000000000000007bffffffffffffffffffffffffffffffffffffffffffffffffffffffff19166020820180517bffffffffffffffffffffffffffffffffffffffffffffffffffffffff8381831617835250505050620000f860201b60201c565b50565b60008151905060006a636f6e736f6c652e6c6f679050602083016000808483855afa5050505050565b60006200012e8262000186565b6200013a818562000191565b93506200014c818560208601620001a2565b6200015781620001d8565b840191505092915050565b600060208201905081810360008301526200017e818462000121565b905092915050565b600081519050919050565b600082825260208201905092915050565b60005b83811015620001c2578082015181840152602081019050620001a5565b83811115620001d2576000848401525b50505050565b6000601f19601f8301169050919050565b61101080620001f96000396000f3fe608060405234801561001057600080fd5b506004361061004c5760003560e01c80631d7b9b94146100515780634b2178081461006d5780639bcfc9321461008b578063fc497b18146100a9575b600080fd5b61006b600480360381019061006691906108f0565b6100d9565b005b61007561034c565b6040516100829190610c97565b60405180910390f35b61009361037a565b6040516100a09190610bb3565b60405180910390f35b6100c360048036038101906100be91906108c7565b6104cb565b6040516100d09190610c97565b60405180910390f35b60016000808282546100eb9190610db4565b925050819055506101316040518060400160405280600f81526020017f2573206861732070756e6368656421000000000000000000000000000000000081525033610646565b600160405180606001604052803373ffffffffffffffffffffffffffffffffffffffff16815260200183815260200142815250908060018154018082558091505060019003906000526020600020906003020160009091909190915060008201518160000160006101000a81548173ffffffffffffffffffffffffffffffffffffffff021916908373ffffffffffffffffffffffffffffffffffffffff16021790555060208201518160010190805190602001906101f09291906107a7565b506040820151816002015550503373ffffffffffffffffffffffffffffffffffffffff167fa35f355e23ec0767309d4cb5da7655124db14a880f63b11d8daf51b4f3c0f8184283604051610245929190610cb2565b60405180910390a26000655af3107a400090504781111561029b576040517f08c379a000000000000000000000000000000000000000000000000000000000815260040161029290610c57565b60405180910390fd5b60003373ffffffffffffffffffffffffffffffffffffffff16826040516102c190610b9e565b60006040518083038185875af1925050503d80600081146102fe576040519150601f19603f3d011682016040523d82523d6000602084013e610303565b606091505b5050905080610347576040517f08c379a000000000000000000000000000000000000000000000000000000000815260040161033e90610c77565b60405180910390fd5b505050565b6000610372604051806060016040528060228152602001610fb9602291396000546106e2565b600054905090565b60606001805480602002602001604051908101604052809291908181526020016000905b828210156104c257838290600052602060002090600302016040518060600160405290816000820160009054906101000a900473ffffffffffffffffffffffffffffffffffffffff1673ffffffffffffffffffffffffffffffffffffffff1673ffffffffffffffffffffffffffffffffffffffff16815260200160018201805461042790610e88565b80601f016020809104026020016040519081016040528092919081815260200182805461045390610e88565b80156104a05780601f10610475576101008083540402835291602001916104a0565b820191906000526020600020905b81548152906001019060200180831161048357829003601f168201915b505050505081526020016002820154815250508152602001906001019061039e565b50505050905090565b6000806000905060005b6001805490508110156105a3578373ffffffffffffffffffffffffffffffffffffffff1660018281548110610533577f4e487b7100000000000000000000000000000000000000000000000000000000600052603260045260246000fd5b906000526020600020906003020160000160009054906101000a900473ffffffffffffffffffffffffffffffffffffffff1673ffffffffffffffffffffffffffffffffffffffff16141561059057818061058c90610eba565b9250505b808061059b90610eba565b9150506104d5565b5080915050919050565b610643816040516024016105c19190610bd5565b6040516020818303038152906040527f41304fac000000000000000000000000000000000000000000000000000000007bffffffffffffffffffffffffffffffffffffffffffffffffffffffff19166020820180517bffffffffffffffffffffffffffffffffffffffffffffffffffffffff838183161783525050505061077e565b50565b6106de828260405160240161065c929190610bf7565b6040516020818303038152906040527f319af333000000000000000000000000000000000000000000000000000000007bffffffffffffffffffffffffffffffffffffffffffffffffffffffff19166020820180517bffffffffffffffffffffffffffffffffffffffffffffffffffffffff838183161783525050505061077e565b5050565b61077a82826040516024016106f8929190610c27565b6040516020818303038152906040527f9710a9d0000000000000000000000000000000000000000000000000000000007bffffffffffffffffffffffffffffffffffffffffffffffffffffffff19166020820180517bffffffffffffffffffffffffffffffffffffffffffffffffffffffff838183161783525050505061077e565b5050565b60008151905060006a636f6e736f6c652e6c6f679050602083016000808483855afa5050505050565b8280546107b390610e88565b90600052602060002090601f0160209004810192826107d5576000855561081c565b82601f106107ee57805160ff191683800117855561081c565b8280016001018555821561081c579182015b8281111561081b578251825591602001919060010190610800565b5b509050610829919061082d565b5090565b5b8082111561084657600081600090555060010161082e565b5090565b600061085d61085884610d13565b610ce2565b90508281526020810184848401111561087557600080fd5b610880848285610e46565b509392505050565b60008135905061089781610fa1565b92915050565b600082601f8301126108ae57600080fd5b81356108be84826020860161084a565b91505092915050565b6000602082840312156108d957600080fd5b60006108e784828501610888565b91505092915050565b60006020828403121561090257600080fd5b600082013567ffffffffffffffff81111561091c57600080fd5b6109288482850161089d565b91505092915050565b600061093d8383610b30565b905092915050565b61094e81610e0a565b82525050565b61095d81610e0a565b82525050565b600061096e82610d53565b6109788185610d76565b93508360208202850161098a85610d43565b8060005b858110156109c657848403895281516109a78582610931565b94506109b283610d69565b925060208a0199505060018101905061098e565b50829750879550505050505092915050565b60006109e382610d5e565b6109ed8185610d92565b93506109fd818560208601610e55565b610a0681610f90565b840191505092915050565b6000610a1c82610d5e565b610a268185610da3565b9350610a36818560208601610e55565b610a3f81610f90565b840191505092915050565b6000610a57603483610da3565b91507f547279696e6720746f207769746864726177206d6f7265206d6f6e657920746860008301527f61742074686520636f6e747261637420686173210000000000000000000000006020830152604082019050919050565b6000610abd602783610da3565b91507f4661696c656420746f207769746864726177206d6f6e65792066726f6d20636f60008301527f6e747261637421000000000000000000000000000000000000000000000000006020830152604082019050919050565b6000610b23600083610d87565b9150600082019050919050565b6000606083016000830151610b486000860182610945565b5060208301518482036020860152610b6082826109d8565b9150506040830151610b756040860182610b80565b508091505092915050565b610b8981610e3c565b82525050565b610b9881610e3c565b82525050565b6000610ba982610b16565b9150819050919050565b60006020820190508181036000830152610bcd8184610963565b905092915050565b60006020820190508181036000830152610bef8184610a11565b905092915050565b60006040820190508181036000830152610c118185610a11565b9050610c206020830184610954565b9392505050565b60006040820190508181036000830152610c418185610a11565b9050610c506020830184610b8f565b9392505050565b60006020820190508181036000830152610c7081610a4a565b9050919050565b60006020820190508181036000830152610c9081610ab0565b9050919050565b6000602082019050610cac6000830184610b8f565b92915050565b6000604082019050610cc76000830185610b8f565b8181036020830152610cd98184610a11565b90509392505050565b6000604051905081810181811067ffffffffffffffff82111715610d0957610d08610f61565b5b8060405250919050565b600067ffffffffffffffff821115610d2e57610d2d610f61565b5b601f19601f8301169050602081019050919050565b6000819050602082019050919050565b600081519050919050565b600081519050919050565b6000602082019050919050565b600082825260208201905092915050565b600081905092915050565b600082825260208201905092915050565b600082825260208201905092915050565b6000610dbf82610e3c565b9150610dca83610e3c565b9250827fffffffffffffffffffffffffffffffffffffffffffffffffffffffffffffffff03821115610dff57610dfe610f03565b5b828201905092915050565b6000610e1582610e1c565b9050919050565b600073ffffffffffffffffffffffffffffffffffffffff82169050919050565b6000819050919050565b82818337600083830152505050565b60005b83811015610e73578082015181840152602081019050610e58565b83811115610e82576000848401525b50505050565b60006002820490506001821680610ea057607f821691505b60208210811415610eb457610eb3610f32565b5b50919050565b6000610ec582610e3c565b91507fffffffffffffffffffffffffffffffffffffffffffffffffffffffffffffffff821415610ef857610ef7610f03565b5b600182019050919050565b7f4e487b7100000000000000000000000000000000000000000000000000000000600052601160045260246000fd5b7f4e487b7100000000000000000000000000000000000000000000000000000000600052602260045260246000fd5b7f4e487b7100000000000000000000000000000000000000000000000000000000600052604160045260246000fd5b6000601f19601f8301169050919050565b610faa81610e0a565b8114610fb557600080fd5b5056fe256420697320746865206e756d626572206f6620746f74616c2070756e6368657321a26469706673582212208b314e408e93b6a293f7a65fdc11ed6b1cd6b027b1bfb45c93d9ea6366b66dc764736f6c63430008000033",
    "linkReferences": {},
    "deployedLinkReferences": {}
}